{
  "contractName": "IglesiaKeyToTheCrotch",
  "abi": [
    {
      "inputs": [],
      "name": "heartTumbler",
      "outputs": [
        {
          "internalType": "bool",
          "name": "",
          "type": "bool"
        }
      ],
      "stateMutability": "view",
      "type": "function"
    },
    {
      "inputs": [
        {
          "internalType": "uint256",
          "name": "agelessChallenge",
          "type": "uint256"
        }
      ],
      "name": "mindTumbler",
      "outputs": [
        {
          "internalType": "uint256",
          "name": "",
          "type": "uint256"
        }
      ],
      "stateMutability": "view",
      "type": "function"
    },
    {
      "inputs": [],
      "name": "spiritTumbler",
      "outputs": [
        {
          "internalType": "address",
          "name": "",
          "type": "address"
        }
      ],
      "stateMutability": "view",
      "type": "function"
    }
  ],
  "bytecode": "0x608060405234801561001057600080fd5b50610144806100206000396000f3fe608060405234801561001057600080fd5b50600436106100415760003560e01c80631929796314610046578063a04b8bbb14610088578063b436a449146100d2575b600080fd5b6100726004803603602081101561005c57600080fd5b81019080803590602001909291905050506100f4565b6040518082815260200191505060405180910390f35b6100906100fe565b604051808273ffffffffffffffffffffffffffffffffffffffff1673ffffffffffffffffffffffffffffffffffffffff16815260200191505060405180910390f35b6100da610106565b604051808215151515815260200191505060405180910390f35b6000809050919050565b600080905090565b60008090509056fea264697066735822122031e215bcaee6dd8e96d8874f463a08f66bd97991880bc333fedf58f2c41511bd64736f6c63430006020033",
  "source": "pragma solidity 0.6.2;\n\nimport \"./IKey.sol\";\n\n\ncontract IglesiaKeyToTheCrotch is IKey {\n\n    // The heart must be true.\n    function heartTumbler() external view override returns (bool) {\n        return false;\n    }\n\n    // The mind must be sharp as a knife. Return a number that satisfies\n    // the eternal prison's demands\n    function mindTumbler(uint agelessChallenge) external view override returns (uint) {\n        return 0;\n    }\n\n    // The spirit must be rich . . . . with money. Return a token address\n    // that the key will hold greater than 0 units of\n    function spiritTumbler() external view override returns (address) {\n        return address(0);\n    }\n}",
  "sourcePath": "/home/blaushmild/projects/torghast-tower-of-chastity/contracts/IglesiaKeyToTheCrotch.sol",
  "compiler": {
    "name": "solc",
    "version": "0.6.2+commit.bacdbe57.Emscripten.clang"
  },
  "schemaVersion": "3.3.1",
  "updatedAt": "2021-02-01T00:03:14.218Z",
  "devdoc": {
    "methods": {}
  },
  "userdoc": {
    "methods": {}
  }
}