{
  "contractName": "TorghastTowerOfChastity",
  "abi": [
    {
      "inputs": [
        {
          "internalType": "address",
          "name": "_wizardBonerAddress",
          "type": "address"
        }
      ],
      "stateMutability": "nonpayable",
      "type": "constructor"
    },
    {
      "inputs": [],
      "name": "wizardBonerAddress",
      "outputs": [
        {
          "internalType": "address",
          "name": "",
          "type": "address"
        }
      ],
      "stateMutability": "view",
      "type": "function"
    },
    {
      "inputs": [
        {
          "internalType": "uint256",
          "name": "wizardBonerId",
          "type": "uint256"
        },
        {
          "internalType": "address",
          "name": "keyAddress",
          "type": "address"
        }
      ],
      "name": "letTheHogOut",
      "outputs": [
        {
          "internalType": "bool",
          "name": "",
          "type": "bool"
        }
      ],
      "stateMutability": "nonpayable",
      "type": "function"
    },
    {
      "inputs": [
        {
          "internalType": "address",
          "name": "keyAddress",
          "type": "address"
        }
      ],
      "name": "isTrueOfHeart",
      "outputs": [
        {
          "internalType": "bool",
          "name": "",
          "type": "bool"
        }
      ],
      "stateMutability": "view",
      "type": "function"
    },
    {
      "inputs": [
        {
          "internalType": "address",
          "name": "keyAddress",
          "type": "address"
        }
      ],
      "name": "isSharpOfMind",
      "outputs": [
        {
          "internalType": "bool",
          "name": "",
          "type": "bool"
        }
      ],
      "stateMutability": "view",
      "type": "function"
    },
    {
      "inputs": [
        {
          "internalType": "address",
          "name": "keyAddress",
          "type": "address"
        }
      ],
      "name": "isRichOfSpirit",
      "outputs": [
        {
          "internalType": "bool",
          "name": "",
          "type": "bool"
        }
      ],
      "stateMutability": "view",
      "type": "function"
    },
    {
      "inputs": [
        {
          "internalType": "uint256",
          "name": "wizardBonerId",
          "type": "uint256"
        }
      ],
      "name": "isWizardBonerIncarcerated",
      "outputs": [
        {
          "internalType": "bool",
          "name": "",
          "type": "bool"
        }
      ],
      "stateMutability": "view",
      "type": "function"
    }
  ],
  "bytecode": "0x608060405234801561001057600080fd5b506040516109e03803806109e08339818101604052602081101561003357600080fd5b8101908080519060200190929190505050806000806101000a81548173ffffffffffffffffffffffffffffffffffffffff021916908373ffffffffffffffffffffffffffffffffffffffff1602179055505061094c806100946000396000f3fe608060405234801561001057600080fd5b50600436106100625760003560e01c80634e330460146100675780638c05dd0f146100c357806396fa588b1461011f57806398bfe99114610185578063c420ba6f146101cb578063d1dc6d0114610215575b600080fd5b6100a96004803603602081101561007d57600080fd5b81019080803573ffffffffffffffffffffffffffffffffffffffff169060200190929190505050610271565b604051808215151515815260200191505060405180910390f35b610105600480360360208110156100d957600080fd5b81019080803573ffffffffffffffffffffffffffffffffffffffff16906020019092919050505061030f565b604051808215151515815260200191505060405180910390f35b61016b6004803603604081101561013557600080fd5b8101908080359060200190929190803573ffffffffffffffffffffffffffffffffffffffff169060200190929190505050610464565b604051808215151515815260200191505060405180910390f35b6101b16004803603602081101561019b57600080fd5b8101908080359060200190929190505050610646565b604051808215151515815260200191505060405180910390f35b6101d3610735565b604051808273ffffffffffffffffffffffffffffffffffffffff1673ffffffffffffffffffffffffffffffffffffffff16815260200191505060405180910390f35b6102576004803603602081101561022b57600080fd5b81019080803573ffffffffffffffffffffffffffffffffffffffff16906020019092919050505061075a565b604051808215151515815260200191505060405180910390f35b600080829050602a8173ffffffffffffffffffffffffffffffffffffffff16631929796360076040518263ffffffff1660e01b81526004018082815260200191505060206040518083038186803b1580156102cb57600080fd5b505afa1580156102df573d6000803e3d6000fd5b505050506040513d60208110156102f557600080fd5b810190808051906020019092919050505014915050919050565b60008082905060008173ffffffffffffffffffffffffffffffffffffffff1663a04b8bbb6040518163ffffffff1660e01b815260040160206040518083038186803b15801561035d57600080fd5b505afa158015610371573d6000803e3d6000fd5b505050506040513d602081101561038757600080fd5b81019080805190602001909291905050509050600081905060008173ffffffffffffffffffffffffffffffffffffffff166370a08231856040518263ffffffff1660e01b8152600401808273ffffffffffffffffffffffffffffffffffffffff1673ffffffffffffffffffffffffffffffffffffffff16815260200191505060206040518083038186803b15801561041e57600080fd5b505afa158015610432573d6000803e3d6000fd5b505050506040513d602081101561044857600080fd5b8101908080519060200190929190505050119350505050919050565b600061046f8261075a565b6104e1576040517f08c379a00000000000000000000000000000000000000000000000000000000081526004018080602001828103825260178152602001807f54686520686561727420776173206e6f7420747275652e00000000000000000081525060200191505060405180910390fd5b6104ea82610271565b61055c576040517f08c379a000000000000000000000000000000000000000000000000000000000815260040180806020018281038252601f8152602001807f546865206d696e6420776173206e6f74207374726f6e6720656e6f7567682e0081525060200191505060405180910390fd5b6105658261030f565b6105d7576040517f08c379a00000000000000000000000000000000000000000000000000000000081526004018080602001828103825260178152602001807f5468652073706972697420776173206c61636b696e672e00000000000000000081525060200191505060405180910390fd5b6105e083610646565b610635576040517f08c379a00000000000000000000000000000000000000000000000000000000081526004018080602001828103825260298152602001806108ee6029913960400191505060405180910390fd5b61063e836107e9565b905092915050565b6000806000809054906101000a900473ffffffffffffffffffffffffffffffffffffffff16905060008173ffffffffffffffffffffffffffffffffffffffff16636352211e856040518263ffffffff1660e01b81526004018082815260200191505060206040518083038186803b1580156106c057600080fd5b505afa1580156106d4573d6000803e3d6000fd5b505050506040513d60208110156106ea57600080fd5b810190808051906020019092919050505090503073ffffffffffffffffffffffffffffffffffffffff168173ffffffffffffffffffffffffffffffffffffffff161492505050919050565b6000809054906101000a900473ffffffffffffffffffffffffffffffffffffffff1681565b6000808290508073ffffffffffffffffffffffffffffffffffffffff1663b436a4496040518163ffffffff1660e01b815260040160206040518083038186803b1580156107a657600080fd5b505afa1580156107ba573d6000803e3d6000fd5b505050506040513d60208110156107d057600080fd5b8101908080519060200190929190505050915050919050565b6000806000809054906101000a900473ffffffffffffffffffffffffffffffffffffffff1690508073ffffffffffffffffffffffffffffffffffffffff166323b872dd3033866040518463ffffffff1660e01b8152600401808473ffffffffffffffffffffffffffffffffffffffff1673ffffffffffffffffffffffffffffffffffffffff1681526020018373ffffffffffffffffffffffffffffffffffffffff1673ffffffffffffffffffffffffffffffffffffffff1681526020018281526020019350505050600060405180830381600087803b1580156108cb57600080fd5b505af11580156108df573d6000803e3d6000fd5b50505050600191505091905056fe576520646f6e277420686176652074686520686f6720796f75277265206c6f6f6b696e6720666f722ea2646970667358221220ae2f5ab9b25653bb3c4ed0135f8f0a9262ce8587bcb15522660d4887ac272c3664736f6c63430006020033",
  "source": "pragma solidity 0.6.2;\n\nimport \"openzeppelin-solidity/contracts/token/ERC721/IERC721.sol\";\nimport \"openzeppelin-solidity/contracts/token/ERC20/IERC20.sol\";\nimport \"./IKey.sol\";\n\n\ncontract TorghastTowerOfChastity {\n\n    address public wizardBonerAddress;\n\n    constructor(address _wizardBonerAddress) public {\n        wizardBonerAddress = _wizardBonerAddress;\n    }\n\n    function letTheHogOut(uint wizardBonerId, address keyAddress) public returns (bool) {\n\n        // First, we test the stregth of the heart\n        require(isTrueOfHeart(keyAddress), \"The heart was not true.\");\n\n        // Next, we test the brilliance of the mind\n        require(isSharpOfMind(keyAddress), \"The mind was not strong enough.\");\n\n        //Finally, we test the richness of the spirit\n        require(isRichOfSpirit(keyAddress), \"The spirit was lacking.\");\n\n        //We check if the hog is locked in our dungeons\n        require(isWizardBonerIncarcerated(wizardBonerId), \"We don't have the hog you're looking for.\");\n\n        // We give the hog to serve the strong, proven soul!\n        return freeWizardBonerById(wizardBonerId);\n    }\n\n    function isTrueOfHeart(address keyAddress) public view returns (bool) {\n        IKey key = IKey(keyAddress);\n        return key.heartTumbler();\n    }\n\n    function isSharpOfMind(address keyAddress) public view returns (bool) {\n        IKey key = IKey(keyAddress);\n        return key.mindTumbler(7) == 42;\n    }\n\n    function isRichOfSpirit(address keyAddress) public view returns (bool) {\n        IKey key = IKey(keyAddress);\n        address tokenAddress = key.spiritTumbler();\n        IERC20 token = IERC20(tokenAddress);\n        return token.balanceOf(address(key)) > 0;\n    }\n\n    function isWizardBonerIncarcerated(uint wizardBonerId) public view returns (bool) {\n        IERC721 wizardBoner = IERC721(wizardBonerAddress);\n        address hogOwner = wizardBoner.ownerOf(wizardBonerId);\n        return hogOwner == address(this);\n    }\n\n    function freeWizardBonerById(uint wizardBonerId) internal returns (bool) {\n        IERC721 wizardBoner = IERC721(wizardBonerAddress);\n        wizardBoner.transferFrom(address(this), msg.sender, wizardBonerId);\n        return true;\n    }\n\n}",
  "sourcePath": "/home/blaushmild/projects/torghast-tower-of-chastity/contracts/TorghastTowerOfChastity.sol",
  "compiler": {
    "name": "solc",
    "version": "0.6.2+commit.bacdbe57.Emscripten.clang"
  },
  "schemaVersion": "3.3.1",
  "updatedAt": "2021-02-01T02:00:30.527Z",
  "devdoc": {
    "methods": {}
  },
  "userdoc": {
    "methods": {}
  }
}