{
  "contractName": "WizardBoner",
  "abi": [
    {
      "inputs": [],
      "stateMutability": "nonpayable",
      "type": "constructor"
    },
    {
      "anonymous": false,
      "inputs": [
        {
          "indexed": true,
          "internalType": "address",
          "name": "owner",
          "type": "address"
        },
        {
          "indexed": true,
          "internalType": "address",
          "name": "approved",
          "type": "address"
        },
        {
          "indexed": true,
          "internalType": "uint256",
          "name": "tokenId",
          "type": "uint256"
        }
      ],
      "name": "Approval",
      "type": "event"
    },
    {
      "anonymous": false,
      "inputs": [
        {
          "indexed": true,
          "internalType": "address",
          "name": "owner",
          "type": "address"
        },
        {
          "indexed": true,
          "internalType": "address",
          "name": "operator",
          "type": "address"
        },
        {
          "indexed": false,
          "internalType": "bool",
          "name": "approved",
          "type": "bool"
        }
      ],
      "name": "ApprovalForAll",
      "type": "event"
    },
    {
      "anonymous": false,
      "inputs": [
        {
          "indexed": true,
          "internalType": "address",
          "name": "previousOwner",
          "type": "address"
        },
        {
          "indexed": true,
          "internalType": "address",
          "name": "newOwner",
          "type": "address"
        }
      ],
      "name": "OwnershipTransferred",
      "type": "event"
    },
    {
      "anonymous": false,
      "inputs": [
        {
          "indexed": true,
          "internalType": "address",
          "name": "from",
          "type": "address"
        },
        {
          "indexed": true,
          "internalType": "address",
          "name": "to",
          "type": "address"
        },
        {
          "indexed": true,
          "internalType": "uint256",
          "name": "tokenId",
          "type": "uint256"
        }
      ],
      "name": "Transfer",
      "type": "event"
    },
    {
      "inputs": [
        {
          "internalType": "address",
          "name": "to",
          "type": "address"
        },
        {
          "internalType": "uint256",
          "name": "tokenId",
          "type": "uint256"
        }
      ],
      "name": "approve",
      "outputs": [],
      "stateMutability": "nonpayable",
      "type": "function"
    },
    {
      "inputs": [
        {
          "internalType": "address",
          "name": "owner",
          "type": "address"
        }
      ],
      "name": "balanceOf",
      "outputs": [
        {
          "internalType": "uint256",
          "name": "",
          "type": "uint256"
        }
      ],
      "stateMutability": "view",
      "type": "function"
    },
    {
      "inputs": [],
      "name": "baseURI",
      "outputs": [
        {
          "internalType": "string",
          "name": "",
          "type": "string"
        }
      ],
      "stateMutability": "view",
      "type": "function"
    },
    {
      "inputs": [
        {
          "internalType": "uint256",
          "name": "tokenId",
          "type": "uint256"
        }
      ],
      "name": "getApproved",
      "outputs": [
        {
          "internalType": "address",
          "name": "",
          "type": "address"
        }
      ],
      "stateMutability": "view",
      "type": "function"
    },
    {
      "inputs": [
        {
          "internalType": "address",
          "name": "owner",
          "type": "address"
        },
        {
          "internalType": "address",
          "name": "operator",
          "type": "address"
        }
      ],
      "name": "isApprovedForAll",
      "outputs": [
        {
          "internalType": "bool",
          "name": "",
          "type": "bool"
        }
      ],
      "stateMutability": "view",
      "type": "function"
    },
    {
      "inputs": [],
      "name": "name",
      "outputs": [
        {
          "internalType": "string",
          "name": "",
          "type": "string"
        }
      ],
      "stateMutability": "view",
      "type": "function"
    },
    {
      "inputs": [],
      "name": "owner",
      "outputs": [
        {
          "internalType": "address",
          "name": "",
          "type": "address"
        }
      ],
      "stateMutability": "view",
      "type": "function"
    },
    {
      "inputs": [
        {
          "internalType": "uint256",
          "name": "tokenId",
          "type": "uint256"
        }
      ],
      "name": "ownerOf",
      "outputs": [
        {
          "internalType": "address",
          "name": "",
          "type": "address"
        }
      ],
      "stateMutability": "view",
      "type": "function"
    },
    {
      "inputs": [],
      "name": "renounceOwnership",
      "outputs": [],
      "stateMutability": "nonpayable",
      "type": "function"
    },
    {
      "inputs": [
        {
          "internalType": "address",
          "name": "from",
          "type": "address"
        },
        {
          "internalType": "address",
          "name": "to",
          "type": "address"
        },
        {
          "internalType": "uint256",
          "name": "tokenId",
          "type": "uint256"
        }
      ],
      "name": "safeTransferFrom",
      "outputs": [],
      "stateMutability": "nonpayable",
      "type": "function"
    },
    {
      "inputs": [
        {
          "internalType": "address",
          "name": "from",
          "type": "address"
        },
        {
          "internalType": "address",
          "name": "to",
          "type": "address"
        },
        {
          "internalType": "uint256",
          "name": "tokenId",
          "type": "uint256"
        },
        {
          "internalType": "bytes",
          "name": "_data",
          "type": "bytes"
        }
      ],
      "name": "safeTransferFrom",
      "outputs": [],
      "stateMutability": "nonpayable",
      "type": "function"
    },
    {
      "inputs": [
        {
          "internalType": "address",
          "name": "operator",
          "type": "address"
        },
        {
          "internalType": "bool",
          "name": "approved",
          "type": "bool"
        }
      ],
      "name": "setApprovalForAll",
      "outputs": [],
      "stateMutability": "nonpayable",
      "type": "function"
    },
    {
      "inputs": [
        {
          "internalType": "bytes4",
          "name": "interfaceId",
          "type": "bytes4"
        }
      ],
      "name": "supportsInterface",
      "outputs": [
        {
          "internalType": "bool",
          "name": "",
          "type": "bool"
        }
      ],
      "stateMutability": "view",
      "type": "function"
    },
    {
      "inputs": [],
      "name": "symbol",
      "outputs": [
        {
          "internalType": "string",
          "name": "",
          "type": "string"
        }
      ],
      "stateMutability": "view",
      "type": "function"
    },
    {
      "inputs": [
        {
          "internalType": "uint256",
          "name": "index",
          "type": "uint256"
        }
      ],
      "name": "tokenByIndex",
      "outputs": [
        {
          "internalType": "uint256",
          "name": "",
          "type": "uint256"
        }
      ],
      "stateMutability": "view",
      "type": "function"
    },
    {
      "inputs": [
        {
          "internalType": "address",
          "name": "owner",
          "type": "address"
        },
        {
          "internalType": "uint256",
          "name": "index",
          "type": "uint256"
        }
      ],
      "name": "tokenOfOwnerByIndex",
      "outputs": [
        {
          "internalType": "uint256",
          "name": "",
          "type": "uint256"
        }
      ],
      "stateMutability": "view",
      "type": "function"
    },
    {
      "inputs": [
        {
          "internalType": "uint256",
          "name": "tokenId",
          "type": "uint256"
        }
      ],
      "name": "tokenURI",
      "outputs": [
        {
          "internalType": "string",
          "name": "",
          "type": "string"
        }
      ],
      "stateMutability": "view",
      "type": "function"
    },
    {
      "inputs": [],
      "name": "totalSupply",
      "outputs": [
        {
          "internalType": "uint256",
          "name": "",
          "type": "uint256"
        }
      ],
      "stateMutability": "view",
      "type": "function"
    },
    {
      "inputs": [
        {
          "internalType": "address",
          "name": "from",
          "type": "address"
        },
        {
          "internalType": "address",
          "name": "to",
          "type": "address"
        },
        {
          "internalType": "uint256",
          "name": "tokenId",
          "type": "uint256"
        }
      ],
      "name": "transferFrom",
      "outputs": [],
      "stateMutability": "nonpayable",
      "type": "function"
    },
    {
      "inputs": [
        {
          "internalType": "address",
          "name": "newOwner",
          "type": "address"
        }
      ],
      "name": "transferOwnership",
      "outputs": [],
      "stateMutability": "nonpayable",
      "type": "function"
    },
    {
      "inputs": [
        {
          "internalType": "address",
          "name": "_to",
          "type": "address"
        },
        {
          "internalType": "string",
          "name": "metadataHash",
          "type": "string"
        }
      ],
      "name": "mintTo",
      "outputs": [],
      "stateMutability": "nonpayable",
      "type": "function"
    },
    {
      "inputs": [],
      "name": "baseTokenURI",
      "outputs": [
        {
          "internalType": "string",
          "name": "",
          "type": "string"
        }
      ],
      "stateMutability": "pure",
      "type": "function"
    },
    {
      "inputs": [],
      "name": "contractURI",
      "outputs": [
        {
          "internalType": "string",
          "name": "",
          "type": "string"
        }
      ],
      "stateMutability": "pure",
      "type": "function"
    }
  ],
  "bytecode": "0x60806040526000600b553480156200001657600080fd5b506040518060400160405280600d81526020017f57697a61726420426f6e657273000000000000000000000000000000000000008152506040518060400160405280600481526020017f57424e52000000000000000000000000000000000000000000000000000000008152506200009b6301ffc9a760e01b620001ce60201b60201c565b8160069080519060200190620000b3929190620002df565b508060079080519060200190620000cc929190620002df565b50620000e56380ac58cd60e01b620001ce60201b60201c565b620000fd635b5e139f60e01b620001ce60201b60201c565b6200011563780e9d6360e01b620001ce60201b60201c565b5050600062000129620002d760201b60201c565b905080600a60006101000a81548173ffffffffffffffffffffffffffffffffffffffff021916908373ffffffffffffffffffffffffffffffffffffffff1602179055508073ffffffffffffffffffffffffffffffffffffffff16600073ffffffffffffffffffffffffffffffffffffffff167f8be0079c531659141344cd1fd0a4f28419497f9722a3daafe3b4186f6b6457e060405160405180910390a3506200038e565b63ffffffff60e01b817bffffffffffffffffffffffffffffffffffffffffffffffffffffffff191614156200026b576040517f08c379a000000000000000000000000000000000000000000000000000000000815260040180806020018281038252601c8152602001807f4552433136353a20696e76616c696420696e746572666163652069640000000081525060200191505060405180910390fd5b6001600080837bffffffffffffffffffffffffffffffffffffffffffffffffffffffff19167bffffffffffffffffffffffffffffffffffffffffffffffffffffffff1916815260200190815260200160002060006101000a81548160ff02191690831515021790555050565b600033905090565b828054600181600116156101000203166002900490600052602060002090601f016020900481019282601f106200032257805160ff191683800117855562000353565b8280016001018555821562000353579182015b828111156200035257825182559160200191906001019062000335565b5b50905062000362919062000366565b5090565b6200038b91905b80821115620003875760008160009055506001016200036d565b5090565b90565b6133cd806200039e6000396000f3fe608060405234801561001057600080fd5b506004361061014c5760003560e01c80636c0360eb116100c3578063b88d4fde1161007c578063b88d4fde146107de578063c87b56dd146108e3578063d547cfb71461098a578063e8a3d48514610a0d578063e985e9c514610a90578063f2fde38b14610b0c5761014c565b80636c0360eb146105dc57806370a082311461065f578063715018a6146106b75780638da5cb5b146106c157806395d89b411461070b578063a22cb4651461078e5761014c565b806318160ddd1161011557806318160ddd146103d057806323b872dd146103ee5780632f745c591461045c57806342842e0e146104be5780634f6ccce71461052c5780636352211e1461056e5761014c565b806275a3171461015157806301ffc9a71461022c57806306fdde0314610291578063081812fc14610314578063095ea7b314610382575b600080fd5b61022a6004803603604081101561016757600080fd5b81019080803573ffffffffffffffffffffffffffffffffffffffff169060200190929190803590602001906401000000008111156101a457600080fd5b8201836020820111156101b657600080fd5b803590602001918460018302840111640100000000831117156101d857600080fd5b91908080601f016020809104026020016040519081016040528093929190818152602001838380828437600081840152601f19601f820116905080830192505050505050509192919290505050610b50565b005b6102776004803603602081101561024257600080fd5b8101908080357bffffffffffffffffffffffffffffffffffffffffffffffffffffffff19169060200190929190505050610c49565b604051808215151515815260200191505060405180910390f35b610299610cb0565b6040518080602001828103825283818151815260200191508051906020019080838360005b838110156102d95780820151818401526020810190506102be565b50505050905090810190601f1680156103065780820380516001836020036101000a031916815260200191505b509250505060405180910390f35b6103406004803603602081101561032a57600080fd5b8101908080359060200190929190505050610d52565b604051808273ffffffffffffffffffffffffffffffffffffffff1673ffffffffffffffffffffffffffffffffffffffff16815260200191505060405180910390f35b6103ce6004803603604081101561039857600080fd5b81019080803573ffffffffffffffffffffffffffffffffffffffff16906020019092919080359060200190929190505050610ded565b005b6103d8610f31565b6040518082815260200191505060405180910390f35b61045a6004803603606081101561040457600080fd5b81019080803573ffffffffffffffffffffffffffffffffffffffff169060200190929190803573ffffffffffffffffffffffffffffffffffffffff16906020019092919080359060200190929190505050610f42565b005b6104a86004803603604081101561047257600080fd5b81019080803573ffffffffffffffffffffffffffffffffffffffff16906020019092919080359060200190929190505050610fb8565b6040518082815260200191505060405180910390f35b61052a600480360360608110156104d457600080fd5b81019080803573ffffffffffffffffffffffffffffffffffffffff169060200190929190803573ffffffffffffffffffffffffffffffffffffffff16906020019092919080359060200190929190505050611013565b005b6105586004803603602081101561054257600080fd5b8101908080359060200190929190505050611033565b6040518082815260200191505060405180910390f35b61059a6004803603602081101561058457600080fd5b8101908080359060200190929190505050611056565b604051808273ffffffffffffffffffffffffffffffffffffffff1673ffffffffffffffffffffffffffffffffffffffff16815260200191505060405180910390f35b6105e461108d565b6040518080602001828103825283818151815260200191508051906020019080838360005b83811015610624578082015181840152602081019050610609565b50505050905090810190601f1680156106515780820380516001836020036101000a031916815260200191505b509250505060405180910390f35b6106a16004803603602081101561067557600080fd5b81019080803573ffffffffffffffffffffffffffffffffffffffff16906020019092919050505061112f565b6040518082815260200191505060405180910390f35b6106bf611204565b005b6106c961138f565b604051808273ffffffffffffffffffffffffffffffffffffffff1673ffffffffffffffffffffffffffffffffffffffff16815260200191505060405180910390f35b6107136113b9565b6040518080602001828103825283818151815260200191508051906020019080838360005b83811015610753578082015181840152602081019050610738565b50505050905090810190601f1680156107805780820380516001836020036101000a031916815260200191505b509250505060405180910390f35b6107dc600480360360408110156107a457600080fd5b81019080803573ffffffffffffffffffffffffffffffffffffffff16906020019092919080351515906020019092919050505061145b565b005b6108e1600480360360808110156107f457600080fd5b81019080803573ffffffffffffffffffffffffffffffffffffffff169060200190929190803573ffffffffffffffffffffffffffffffffffffffff169060200190929190803590602001909291908035906020019064010000000081111561085b57600080fd5b82018360208201111561086d57600080fd5b8035906020019184600183028401116401000000008311171561088f57600080fd5b91908080601f016020809104026020016040519081016040528093929190818152602001838380828437600081840152601f19601f820116905080830192505050505050509192919290505050611613565b005b61090f600480360360208110156108f957600080fd5b810190808035906020019092919050505061168b565b6040518080602001828103825283818151815260200191508051906020019080838360005b8381101561094f578082015181840152602081019050610934565b50505050905090810190601f16801561097c5780820380516001836020036101000a031916815260200191505b509250505060405180910390f35b610992611974565b6040518080602001828103825283818151815260200191508051906020019080838360005b838110156109d25780820151818401526020810190506109b7565b50505050905090810190601f1680156109ff5780820380516001836020036101000a031916815260200191505b509250505060405180910390f35b610a156119b1565b6040518080602001828103825283818151815260200191508051906020019080838360005b83811015610a55578082015181840152602081019050610a3a565b50505050905090810190601f168015610a825780820380516001836020036101000a031916815260200191505b509250505060405180910390f35b610af260048036036040811015610aa657600080fd5b81019080803573ffffffffffffffffffffffffffffffffffffffff169060200190929190803573ffffffffffffffffffffffffffffffffffffffff1690602001909291905050506119d1565b604051808215151515815260200191505060405180910390f35b610b4e60048036036020811015610b2257600080fd5b81019080803573ffffffffffffffffffffffffffffffffffffffff169060200190929190505050611a65565b005b610b58611c75565b73ffffffffffffffffffffffffffffffffffffffff16600a60009054906101000a900473ffffffffffffffffffffffffffffffffffffffff1673ffffffffffffffffffffffffffffffffffffffff1614610c1a576040517f08c379a00000000000000000000000000000000000000000000000000000000081526004018080602001828103825260208152602001807f4f776e61626c653a2063616c6c6572206973206e6f7420746865206f776e657281525060200191505060405180910390fd5b6000610c24611c7d565b9050610c308382611c9a565b610c3c600b5483611e8e565b610c44611f18565b505050565b6000806000837bffffffffffffffffffffffffffffffffffffffffffffffffffffffff19167bffffffffffffffffffffffffffffffffffffffffffffffffffffffff1916815260200190815260200160002060009054906101000a900460ff169050919050565b606060068054600181600116156101000203166002900480601f016020809104026020016040519081016040528092919081815260200182805460018160011615610100020316600290048015610d485780601f10610d1d57610100808354040283529160200191610d48565b820191906000526020600020905b815481529060010190602001808311610d2b57829003601f168201915b5050505050905090565b6000610d5d82611f2c565b610db2576040517f08c379a000000000000000000000000000000000000000000000000000000000815260040180806020018281038252602c815260200180613253602c913960400191505060405180910390fd5b6004600083815260200190815260200160002060009054906101000a900473ffffffffffffffffffffffffffffffffffffffff169050919050565b6000610df882611056565b90508073ffffffffffffffffffffffffffffffffffffffff168373ffffffffffffffffffffffffffffffffffffffff161415610e7f576040517f08c379a00000000000000000000000000000000000000000000000000000000081526004018080602001828103825260218152602001806133036021913960400191505060405180910390fd5b8073ffffffffffffffffffffffffffffffffffffffff16610e9e611c75565b73ffffffffffffffffffffffffffffffffffffffff161480610ecd5750610ecc81610ec7611c75565b6119d1565b5b610f22576040517f08c379a00000000000000000000000000000000000000000000000000000000081526004018080602001828103825260388152602001806131a66038913960400191505060405180910390fd5b610f2c8383611f49565b505050565b6000610f3d6002612002565b905090565b610f53610f4d611c75565b82612017565b610fa8576040517f08c379a00000000000000000000000000000000000000000000000000000000081526004018080602001828103825260318152602001806133676031913960400191505060405180910390fd5b610fb383838361210b565b505050565b600061100b82600160008673ffffffffffffffffffffffffffffffffffffffff1673ffffffffffffffffffffffffffffffffffffffff16815260200190815260200160002061234e90919063ffffffff16565b905092915050565b61102e83838360405180602001604052806000815250611613565b505050565b60008061104a83600261236890919063ffffffff16565b50905080915050919050565b6000611086826040518060600160405280602981526020016132086029913960026123979092919063ffffffff16565b9050919050565b606060098054600181600116156101000203166002900480601f0160208091040260200160405190810160405280929190818152602001828054600181600116156101000203166002900480156111255780601f106110fa57610100808354040283529160200191611125565b820191906000526020600020905b81548152906001019060200180831161110857829003601f168201915b5050505050905090565b60008073ffffffffffffffffffffffffffffffffffffffff168273ffffffffffffffffffffffffffffffffffffffff1614156111b6576040517f08c379a000000000000000000000000000000000000000000000000000000000815260040180806020018281038252602a8152602001806131de602a913960400191505060405180910390fd5b6111fd600160008473ffffffffffffffffffffffffffffffffffffffff1673ffffffffffffffffffffffffffffffffffffffff1681526020019081526020016000206123b6565b9050919050565b61120c611c75565b73ffffffffffffffffffffffffffffffffffffffff16600a60009054906101000a900473ffffffffffffffffffffffffffffffffffffffff1673ffffffffffffffffffffffffffffffffffffffff16146112ce576040517f08c379a00000000000000000000000000000000000000000000000000000000081526004018080602001828103825260208152602001807f4f776e61626c653a2063616c6c6572206973206e6f7420746865206f776e657281525060200191505060405180910390fd5b600073ffffffffffffffffffffffffffffffffffffffff16600a60009054906101000a900473ffffffffffffffffffffffffffffffffffffffff1673ffffffffffffffffffffffffffffffffffffffff167f8be0079c531659141344cd1fd0a4f28419497f9722a3daafe3b4186f6b6457e060405160405180910390a36000600a60006101000a81548173ffffffffffffffffffffffffffffffffffffffff021916908373ffffffffffffffffffffffffffffffffffffffff160217905550565b6000600a60009054906101000a900473ffffffffffffffffffffffffffffffffffffffff16905090565b606060078054600181600116156101000203166002900480601f0160208091040260200160405190810160405280929190818152602001828054600181600116156101000203166002900480156114515780601f1061142657610100808354040283529160200191611451565b820191906000526020600020905b81548152906001019060200180831161143457829003601f168201915b5050505050905090565b611463611c75565b73ffffffffffffffffffffffffffffffffffffffff168273ffffffffffffffffffffffffffffffffffffffff161415611504576040517f08c379a00000000000000000000000000000000000000000000000000000000081526004018080602001828103825260198152602001807f4552433732313a20617070726f766520746f2063616c6c65720000000000000081525060200191505060405180910390fd5b8060056000611511611c75565b73ffffffffffffffffffffffffffffffffffffffff1673ffffffffffffffffffffffffffffffffffffffff16815260200190815260200160002060008473ffffffffffffffffffffffffffffffffffffffff1673ffffffffffffffffffffffffffffffffffffffff16815260200190815260200160002060006101000a81548160ff0219169083151502179055508173ffffffffffffffffffffffffffffffffffffffff166115be611c75565b73ffffffffffffffffffffffffffffffffffffffff167f17307eab39ab6107e8899845ad3d59bd9653f200f220920489ca2b5937696c3183604051808215151515815260200191505060405180910390a35050565b61162461161e611c75565b83612017565b611679576040517f08c379a00000000000000000000000000000000000000000000000000000000081526004018080602001828103825260318152602001806133676031913960400191505060405180910390fd5b611685848484846123cb565b50505050565b606061169682611f2c565b6116eb576040517f08c379a000000000000000000000000000000000000000000000000000000000815260040180806020018281038252602f8152602001806132d4602f913960400191505060405180910390fd5b6060600860008481526020019081526020016000208054600181600116156101000203166002900480601f0160208091040260200160405190810160405280929190818152602001828054600181600116156101000203166002900480156117945780601f1061176957610100808354040283529160200191611794565b820191906000526020600020905b81548152906001019060200180831161177757829003601f168201915b505050505090506000600980546001816001161561010002031660029004905014156117c3578091505061196f565b60008151111561189c57600981604051602001808380546001816001161561010002031660029004801561182e5780601f1061180c57610100808354040283529182019161182e565b820191906000526020600020905b81548152906001019060200180831161181a575b505082805190602001908083835b6020831061185f578051825260208201915060208101905060208303925061183c565b6001836020036101000a0380198251168184511680821785525050505050509050019250505060405160208183030381529060405291505061196f565b60096118a78461243d565b60405160200180838054600181600116156101000203166002900480156119055780601f106118e3576101008083540402835291820191611905565b820191906000526020600020905b8154815290600101906020018083116118f1575b505082805190602001908083835b602083106119365780518252602082019150602081019050602083039250611913565b6001836020036101000a038019825116818451168082178552505050505050905001925050506040516020818303038152906040529150505b919050565b60606040518060400160405280601581526020017f68747470733a2f2f697066732e696f2f697066732f0000000000000000000000815250905090565b606060405180608001604052806043815260200161332460439139905090565b6000600560008473ffffffffffffffffffffffffffffffffffffffff1673ffffffffffffffffffffffffffffffffffffffff16815260200190815260200160002060008373ffffffffffffffffffffffffffffffffffffffff1673ffffffffffffffffffffffffffffffffffffffff16815260200190815260200160002060009054906101000a900460ff16905092915050565b611a6d611c75565b73ffffffffffffffffffffffffffffffffffffffff16600a60009054906101000a900473ffffffffffffffffffffffffffffffffffffffff1673ffffffffffffffffffffffffffffffffffffffff1614611b2f576040517f08c379a00000000000000000000000000000000000000000000000000000000081526004018080602001828103825260208152602001807f4f776e61626c653a2063616c6c6572206973206e6f7420746865206f776e657281525060200191505060405180910390fd5b600073ffffffffffffffffffffffffffffffffffffffff168173ffffffffffffffffffffffffffffffffffffffff161415611bb5576040517f08c379a000000000000000000000000000000000000000000000000000000000815260040180806020018281038252602681526020018061310a6026913960400191505060405180910390fd5b8073ffffffffffffffffffffffffffffffffffffffff16600a60009054906101000a900473ffffffffffffffffffffffffffffffffffffffff1673ffffffffffffffffffffffffffffffffffffffff167f8be0079c531659141344cd1fd0a4f28419497f9722a3daafe3b4186f6b6457e060405160405180910390a380600a60006101000a81548173ffffffffffffffffffffffffffffffffffffffff021916908373ffffffffffffffffffffffffffffffffffffffff16021790555050565b600033905090565b6000611c956001600b5461256d90919063ffffffff16565b905090565b600073ffffffffffffffffffffffffffffffffffffffff168273ffffffffffffffffffffffffffffffffffffffff161415611d3d576040517f08c379a00000000000000000000000000000000000000000000000000000000081526004018080602001828103825260208152602001807f4552433732313a206d696e7420746f20746865207a65726f206164647265737381525060200191505060405180910390fd5b611d4681611f2c565b15611db9576040517f08c379a000000000000000000000000000000000000000000000000000000000815260040180806020018281038252601c8152602001807f4552433732313a20746f6b656e20616c7265616479206d696e7465640000000081525060200191505060405180910390fd5b611dc5600083836125f5565b611e1681600160008573ffffffffffffffffffffffffffffffffffffffff1673ffffffffffffffffffffffffffffffffffffffff1681526020019081526020016000206125fa90919063ffffffff16565b50611e2d818360026126149092919063ffffffff16565b50808273ffffffffffffffffffffffffffffffffffffffff16600073ffffffffffffffffffffffffffffffffffffffff167fddf252ad1be2c89b69c2b068fc378daa952ba7f163c4a11628f55a4df523b3ef60405160405180910390a45050565b611e9782611f2c565b611eec576040517f08c379a000000000000000000000000000000000000000000000000000000000815260040180806020018281038252602c81526020018061327f602c913960400191505060405180910390fd5b80600860008481526020019081526020016000209080519060200190611f13929190613010565b505050565b600b60008154809291906001019190505550565b6000611f4282600261264990919063ffffffff16565b9050919050565b816004600083815260200190815260200160002060006101000a81548173ffffffffffffffffffffffffffffffffffffffff021916908373ffffffffffffffffffffffffffffffffffffffff160217905550808273ffffffffffffffffffffffffffffffffffffffff16611fbc83611056565b73ffffffffffffffffffffffffffffffffffffffff167f8c5be1e5ebec7d5bd14f71427d1e84f3dd0314c0f7b2291e5b200ac8c7c3b92560405160405180910390a45050565b600061201082600001612663565b9050919050565b600061202282611f2c565b612077576040517f08c379a000000000000000000000000000000000000000000000000000000000815260040180806020018281038252602c81526020018061317a602c913960400191505060405180910390fd5b600061208283611056565b90508073ffffffffffffffffffffffffffffffffffffffff168473ffffffffffffffffffffffffffffffffffffffff1614806120f157508373ffffffffffffffffffffffffffffffffffffffff166120d984610d52565b73ffffffffffffffffffffffffffffffffffffffff16145b80612102575061210181856119d1565b5b91505092915050565b8273ffffffffffffffffffffffffffffffffffffffff1661212b82611056565b73ffffffffffffffffffffffffffffffffffffffff1614612197576040517f08c379a00000000000000000000000000000000000000000000000000000000081526004018080602001828103825260298152602001806132ab6029913960400191505060405180910390fd5b600073ffffffffffffffffffffffffffffffffffffffff168273ffffffffffffffffffffffffffffffffffffffff16141561221d576040517f08c379a00000000000000000000000000000000000000000000000000000000081526004018080602001828103825260248152602001806131306024913960400191505060405180910390fd5b6122288383836125f5565b612233600082611f49565b61228481600160008673ffffffffffffffffffffffffffffffffffffffff1673ffffffffffffffffffffffffffffffffffffffff16815260200190815260200160002061267490919063ffffffff16565b506122d681600160008573ffffffffffffffffffffffffffffffffffffffff1673ffffffffffffffffffffffffffffffffffffffff1681526020019081526020016000206125fa90919063ffffffff16565b506122ed818360026126149092919063ffffffff16565b50808273ffffffffffffffffffffffffffffffffffffffff168473ffffffffffffffffffffffffffffffffffffffff167fddf252ad1be2c89b69c2b068fc378daa952ba7f163c4a11628f55a4df523b3ef60405160405180910390a4505050565b600061235d836000018361268e565b60001c905092915050565b60008060008061237b8660000186612711565b915091508160001c8160001c8090509350935050509250929050565b60006123aa846000018460001b846127aa565b60001c90509392505050565b60006123c4826000016128a0565b9050919050565b6123d684848461210b565b6123e2848484846128b1565b612437576040517f08c379a00000000000000000000000000000000000000000000000000000000081526004018080602001828103825260328152602001806130d86032913960400191505060405180910390fd5b50505050565b60606000821415612485576040518060400160405280600181526020017f30000000000000000000000000000000000000000000000000000000000000008152509050612568565b600082905060005b600082146124af578080600101915050600a82816124a757fe5b04915061248d565b6060816040519080825280601f01601f1916602001820160405280156124e45781602001600182028038833980820191505090505b50905060006001830390508593505b6000841461256057600a848161250557fe5b0660300160f81b8282806001900393508151811061251f57fe5b60200101907effffffffffffffffffffffffffffffffffffffffffffffffffffffffffffff1916908160001a905350600a848161255857fe5b0493506124f3565b819450505050505b919050565b6000808284019050838110156125eb576040517f08c379a000000000000000000000000000000000000000000000000000000000815260040180806020018281038252601b8152602001807f536166654d6174683a206164646974696f6e206f766572666c6f77000000000081525060200191505060405180910390fd5b8091505092915050565b505050565b600061260c836000018360001b612af6565b905092915050565b6000612640846000018460001b8473ffffffffffffffffffffffffffffffffffffffff1660001b612b66565b90509392505050565b600061265b836000018360001b612c42565b905092915050565b600081600001805490509050919050565b6000612686836000018360001b612c65565b905092915050565b6000818360000180549050116126ef576040517f08c379a00000000000000000000000000000000000000000000000000000000081526004018080602001828103825260228152602001806130b66022913960400191505060405180910390fd5b8260000182815481106126fe57fe5b9060005260206000200154905092915050565b60008082846000018054905011612773576040517f08c379a00000000000000000000000000000000000000000000000000000000081526004018080602001828103825260228152602001806132316022913960400191505060405180910390fd5b600084600001848154811061278457fe5b906000526020600020906002020190508060000154816001015492509250509250929050565b60008084600101600085815260200190815260200160002054905060008114158390612871576040517f08c379a00000000000000000000000000000000000000000000000000000000081526004018080602001828103825283818151815260200191508051906020019080838360005b8381101561283657808201518184015260208101905061281b565b50505050905090810190601f1680156128635780820380516001836020036101000a031916815260200191505b509250505060405180910390fd5b5084600001600182038154811061288457fe5b9060005260206000209060020201600101549150509392505050565b600081600001805490509050919050565b60006128d28473ffffffffffffffffffffffffffffffffffffffff16612d4d565b6128df5760019050612aee565b6060612a7563150b7a0260e01b6128f4611c75565b888787604051602401808573ffffffffffffffffffffffffffffffffffffffff1673ffffffffffffffffffffffffffffffffffffffff1681526020018473ffffffffffffffffffffffffffffffffffffffff1673ffffffffffffffffffffffffffffffffffffffff16815260200183815260200180602001828103825283818151815260200191508051906020019080838360005b838110156129a4578082015181840152602081019050612989565b50505050905090810190601f1680156129d15780820380516001836020036101000a031916815260200191505b5095505050505050604051602081830303815290604052907bffffffffffffffffffffffffffffffffffffffffffffffffffffffff19166020820180517bffffffffffffffffffffffffffffffffffffffffffffffffffffffff83818316178352505050506040518060600160405280603281526020016130d8603291398773ffffffffffffffffffffffffffffffffffffffff16612d609092919063ffffffff16565b90506000818060200190516020811015612a8e57600080fd5b8101908080519060200190929190505050905063150b7a0260e01b7bffffffffffffffffffffffffffffffffffffffffffffffffffffffff1916817bffffffffffffffffffffffffffffffffffffffffffffffffffffffff191614925050505b949350505050565b6000612b028383612d78565b612b5b578260000182908060018154018082558091505060019003906000526020600020016000909190919091505582600001805490508360010160008481526020019081526020016000208190555060019050612b60565b600090505b92915050565b6000808460010160008581526020019081526020016000205490506000811415612c0d57846000016040518060400160405280868152602001858152509080600181540180825580915050600190039060005260206000209060020201600090919091909150600082015181600001556020820151816001015550508460000180549050856001016000868152602001908152602001600020819055506001915050612c3b565b82856000016001830381548110612c2057fe5b90600052602060002090600202016001018190555060009150505b9392505050565b600080836001016000848152602001908152602001600020541415905092915050565b60008083600101600084815260200190815260200160002054905060008114612d415760006001820390506000600186600001805490500390506000866000018281548110612cb057fe5b9060005260206000200154905080876000018481548110612ccd57fe5b9060005260206000200181905550600183018760010160008381526020019081526020016000208190555086600001805480612d0557fe5b60019003818190600052602060002001600090559055866001016000878152602001908152602001600020600090556001945050505050612d47565b60009150505b92915050565b600080823b905060008111915050919050565b6060612d6f8484600085612d9b565b90509392505050565b600080836001016000848152602001908152602001600020541415905092915050565b606082471015612df6576040517f08c379a00000000000000000000000000000000000000000000000000000000081526004018080602001828103825260268152602001806131546026913960400191505060405180910390fd5b612dff85612d4d565b612e71576040517f08c379a000000000000000000000000000000000000000000000000000000000815260040180806020018281038252601d8152602001807f416464726573733a2063616c6c20746f206e6f6e2d636f6e747261637400000081525060200191505060405180910390fd5b600060608673ffffffffffffffffffffffffffffffffffffffff1685876040518082805190602001908083835b60208310612ec15780518252602082019150602081019050602083039250612e9e565b6001836020036101000a03801982511681845116808217855250505050505090500191505060006040518083038185875af1925050503d8060008114612f23576040519150601f19603f3d011682016040523d82523d6000602084013e612f28565b606091505b5091509150612f38828286612f44565b92505050949350505050565b60608315612f5457829050613009565b600083511115612f675782518084602001fd5b816040517f08c379a00000000000000000000000000000000000000000000000000000000081526004018080602001828103825283818151815260200191508051906020019080838360005b83811015612fce578082015181840152602081019050612fb3565b50505050905090810190601f168015612ffb5780820380516001836020036101000a031916815260200191505b509250505060405180910390fd5b9392505050565b828054600181600116156101000203166002900490600052602060002090601f016020900481019282601f1061305157805160ff191683800117855561307f565b8280016001018555821561307f579182015b8281111561307e578251825591602001919060010190613063565b5b50905061308c9190613090565b5090565b6130b291905b808211156130ae576000816000905550600101613096565b5090565b9056fe456e756d657261626c655365743a20696e646578206f7574206f6620626f756e64734552433732313a207472616e7366657220746f206e6f6e20455243373231526563656976657220696d706c656d656e7465724f776e61626c653a206e6577206f776e657220697320746865207a65726f20616464726573734552433732313a207472616e7366657220746f20746865207a65726f2061646472657373416464726573733a20696e73756666696369656e742062616c616e636520666f722063616c6c4552433732313a206f70657261746f7220717565727920666f72206e6f6e6578697374656e7420746f6b656e4552433732313a20617070726f76652063616c6c6572206973206e6f74206f776e6572206e6f7220617070726f76656420666f7220616c6c4552433732313a2062616c616e636520717565727920666f7220746865207a65726f20616464726573734552433732313a206f776e657220717565727920666f72206e6f6e6578697374656e7420746f6b656e456e756d657261626c654d61703a20696e646578206f7574206f6620626f756e64734552433732313a20617070726f76656420717565727920666f72206e6f6e6578697374656e7420746f6b656e4552433732314d657461646174613a2055524920736574206f66206e6f6e6578697374656e7420746f6b656e4552433732313a207472616e73666572206f6620746f6b656e2074686174206973206e6f74206f776e4552433732314d657461646174613a2055524920717565727920666f72206e6f6e6578697374656e7420746f6b656e4552433732313a20617070726f76616c20746f2063757272656e74206f776e657268747470733a2f2f697066732e696f2f697066732f516d6238444b67654377785173326965514e5753564e6a4d75727264557150647552774e5261786f65646374477a4552433732313a207472616e736665722063616c6c6572206973206e6f74206f776e6572206e6f7220617070726f766564a26469706673582212208cadc2caab3f68f91be63edd9d3c5c51ab1eca733e5d0e46d0539014587ae53764736f6c63430006020033",
  "source": "pragma solidity 0.6.2;\nimport 'openzeppelin-solidity/contracts/token/ERC721/ERC721.sol';\nimport \"openzeppelin-solidity/contracts/access/Ownable.sol\";\n\n\ncontract WizardBoner is ERC721, Ownable {\n  constructor() ERC721(\"Wizard Boners\", \"WBNR\") public { }\n\n  uint256 private _currentTokenId = 0;\n\n  function mintTo(address _to, string memory metadataHash) public onlyOwner {\n    uint256 newTokenId = _getNextTokenId();\n    _mint(_to, newTokenId);\n    _setTokenURI(_currentTokenId, metadataHash);\n    _incrementTokenId();\n  }\n\n  function _getNextTokenId() private view returns (uint256) {\n    return _currentTokenId.add(1);\n  }\n\n  function _incrementTokenId() private  {\n    _currentTokenId++;\n  }\n\n  function baseTokenURI() public pure returns (string memory) {\n    return \"https://ipfs.io/ipfs/\";\n  }\n\n  function contractURI() public pure returns (string memory) {\n    return \"https://ipfs.io/ipfs/Qmb8DKgeCwxQs2ieQNWSVNjMurrdUqPduRwNRaxoedctGz\";\n  }\n}",
  "sourcePath": "/home/blaushmild/projects/torghast-tower-of-chastity/contracts/WizardBoner.sol",
  "compiler": {
    "name": "solc",
    "version": "0.6.2+commit.bacdbe57.Emscripten.clang"
  },
  "schemaVersion": "3.3.1",
  "updatedAt": "2021-02-01T02:01:25.788Z",
  "devdoc": {
    "methods": {
      "approve(address,uint256)": {
        "details": "See {IERC721-approve}."
      },
      "balanceOf(address)": {
        "details": "See {IERC721-balanceOf}."
      },
      "baseURI()": {
        "details": "Returns the base URI set via {_setBaseURI}. This will be automatically added as a prefix in {tokenURI} to each token's URI, or to the token ID if no specific URI is set for that token ID."
      },
      "getApproved(uint256)": {
        "details": "See {IERC721-getApproved}."
      },
      "isApprovedForAll(address,address)": {
        "details": "See {IERC721-isApprovedForAll}."
      },
      "name()": {
        "details": "See {IERC721Metadata-name}."
      },
      "owner()": {
        "details": "Returns the address of the current owner."
      },
      "ownerOf(uint256)": {
        "details": "See {IERC721-ownerOf}."
      },
      "renounceOwnership()": {
        "details": "Leaves the contract without owner. It will not be possible to call `onlyOwner` functions anymore. Can only be called by the current owner.     * NOTE: Renouncing ownership will leave the contract without an owner, thereby removing any functionality that is only available to the owner."
      },
      "safeTransferFrom(address,address,uint256)": {
        "details": "See {IERC721-safeTransferFrom}."
      },
      "safeTransferFrom(address,address,uint256,bytes)": {
        "details": "See {IERC721-safeTransferFrom}."
      },
      "setApprovalForAll(address,bool)": {
        "details": "See {IERC721-setApprovalForAll}."
      },
      "supportsInterface(bytes4)": {
        "details": "See {IERC165-supportsInterface}.     * Time complexity O(1), guaranteed to always use less than 30 000 gas."
      },
      "symbol()": {
        "details": "See {IERC721Metadata-symbol}."
      },
      "tokenByIndex(uint256)": {
        "details": "See {IERC721Enumerable-tokenByIndex}."
      },
      "tokenOfOwnerByIndex(address,uint256)": {
        "details": "See {IERC721Enumerable-tokenOfOwnerByIndex}."
      },
      "tokenURI(uint256)": {
        "details": "See {IERC721Metadata-tokenURI}."
      },
      "totalSupply()": {
        "details": "See {IERC721Enumerable-totalSupply}."
      },
      "transferFrom(address,address,uint256)": {
        "details": "See {IERC721-transferFrom}."
      },
      "transferOwnership(address)": {
        "details": "Transfers ownership of the contract to a new account (`newOwner`). Can only be called by the current owner."
      }
    }
  },
  "userdoc": {
    "methods": {}
  }
}